{
  "fixture_id": "l2-poc-plan7-v2",
  "description": "Deterministic 5-transaction fixture for L2 POC plan 007 (Kona-backed local witness bundle)",
  "chain_id": 11155420,
  "token_contract": "0xb6def636914ae60173d9007e732684a9eedef26e",
  "fee_recipient": "0x4200000000000000000000000000000000000011",
  "start_block": 26207960,
  "end_block": 26207960,
  "start_timestamp": 1744218460,
  "timestamp_delta_seconds": 0,
  "gas_limit": 60000000,
  "pre_checkpoint": {
    "prev_output_root": "0x1111111111111111111111111111111111111111111111111111111111111111",
    "parent_header_hash": "0x3d44584ac8a9dbb5b3a18645a1c5489a64618f3fe030f53ccb124314a2bf89e3",
    "parent_block_number": 26207959,
    "rollup_config_ref": "fixtures/l2-poc/rollup-config-v1.json",
    "witness_bundle_ref": "fixtures/l2-poc/witness-bundle-v1.json",
    "prev_randao": "0xfca9613bdc740286ff7d7732e3bbaeb79228193b38f2f9fab022c9ff8c4f56a3",
    "parent_beacon_block_root": "0x789b1c07d9bad081101ab49fb48daa5abf9dce9ff2906166a0280433833e001e"
  },
  "output_root_witness": {
    "message_passer_storage_root": "0x7aa2621a97f64f9e6c4d674c7664929e0c6d499e517c9838651258bc69510697"
  },
  "accounts": {},
  "transactions": [
    {
      "id": "tx1",
      "sender": "fixture-signer-1",
      "nonce": 0,
      "to": "0xb6def636914ae60173d9007e732684a9eedef26e",
      "calldata": null,
      "raw": "0x7ef8f8a077efb5d9d697e7e37fffcb8b904e28df49667b73d9fc17515eb0e4a0c377d3db94deaddeaddeaddeaddeaddeaddeaddeaddead00019442000000000000000000000000000000000000158080830f424080b8a4440a5e2000001db0000d273000000000000000000000000067f6a91000000000007b5f410000000000000000000000000000000000000000000000000000000001d276cd00000000000000000000000000000000000000000000000000000000000000019244875342f5e0c1624d00f249b1a7996137b1eb44bdf16396f98f76a1bec6fa0000000000000000000000008f23bb38f531600e5d8fddaaec41f13fab46e98c",
      "hash": "0x24b776bee9799bef3cc487401151d71c08241255882633870b442c673651ce60"
    },
    {
      "id": "tx2",
      "sender": "fixture-signer-2",
      "nonce": 1,
      "to": "0xb6def636914ae60173d9007e732684a9eedef26e",
      "calldata": null,
      "raw": "0xf901578252d3841dcd65008303d09094b6def636914ae60173d9007e732684a9eedef26e8829a2241af62c0000b8e456591d59756e69740000000000000000000000000000000000000000000000000000000000000000000000000000000000000000000000000000000000000000000000000000000000000000000000000b4b562b0baf8f5da3134b54b7bce25196ca89b300000000000000000000000000000000000000000000000029a207ee8a25c6ec0000000000000000000000000000000000000000000000000000000000000000000000000000000000000000000000000000000000000000000000000000000000000000000000000000000000000000000000000000000029a2241af62c00008401546fdba0f119cca21c18c97dba2a407b45ceab0926429e439b8bb4611a666042263d48bba04e560fdd5f5fb8dc48d436da36ae816f546eb4a784b3b55a7a6e7e9c440aac83",
      "hash": "0xe06c6f8d15665606ecf92b19b6d7333d072c64a3e45a492470ecbd13cf116d97"
    },
    {
      "id": "tx3",
      "sender": "fixture-signer-3",
      "nonce": 2,
      "to": "0xb6def636914ae60173d9007e732684a9eedef26e",
      "calldata": null,
      "raw": "0xf9015782396a841dcd65008303d09094b6def636914ae60173d9007e732684a9eedef26e880de0b6b3a7640000b8e456591d59756e6974000000000000000000000000000000000000000000000000000000000000000000000000000000000000000000000000000000000000000000000000000000000000000000000000a6726b8d9f80dd11e2c48221431a3343719254fe0000000000000000000000000000000000000000000000000de09cb9e6cc4680000000000000000000000000000000000000000000000000000000000000000000000000000000000000000000000000000000000000000000000000000000000000000000000000000000000000000000000000000000000de0b6b3a76400008401546fdca02d0bc0dd5ca121f7e93e20f8ce3fdb74b7f8e8c99bbe9d06c35bc791b4d61719a05a7cbff07951db695e8ab02ec7b60c46cfa2e9b2e0d98a8eaf5555284785a88c",
      "hash": "0xcb21cd3cbe16f3653b946d16253c7bbf1fef0a5c7cc7f6dc8daafb8c1239bfbb"
    },
    {
      "id": "tx4",
      "sender": "fixture-signer-4",
      "nonce": 3,
      "to": "0xb6def636914ae60173d9007e732684a9eedef26e",
      "calldata": null,
      "raw": "0xf90157826411841dcd65008303d09094b6def636914ae60173d9007e732684a9eedef26e8829a2241af62c0000b8e456591d59756e6974000000000000000000000000000000000000000000000000000000000000000000000000000000000000000000000000000000000000000000000000000000000000000000000000c535418a44e4c5cef69333f28b65c06652a5980e00000000000000000000000000000000000000000000000029a207ee8a25c6ec0000000000000000000000000000000000000000000000000000000000000000000000000000000000000000000000000000000000000000000000000000000000000000000000000000000000000000000000000000000029a2241af62c00008401546fdba068a8b6aa1abdb049592aef35559804507542540ee705533d01c9879c4ea545e6a032553cbec4b57ae238b82d1bea66e20bc99bb90c741a1269cd252a1ff1bc14bb",
      "hash": "0x99776a682dfc28c0c3f173ee61f7177dee3221875918c7eb432663cea7c72019"
    },
    {
      "id": "tx5",
      "sender": "fixture-signer-5",
      "nonce": 4,
      "to": "0xb6def636914ae60173d9007e732684a9eedef26e",
      "calldata": null,
      "raw": "0xf9015782308e841dcd65008303d09094b6def636914ae60173d9007e732684a9eedef26e8829a2241af62c0000b8e456591d59756e6974000000000000000000000000000000000000000000000000000000000000000000000000000000000000000000000000000000000000000000000000000000000000000000000000b3532070597fc7eccfacb63fa11622b9cdb267eb00000000000000000000000000000000000000000000000029a207ee8a25c6ec0000000000000000000000000000000000000000000000000000000000000000000000000000000000000000000000000000000000000000000000000000000000000000000000000000000000000000000000000000000029a2241af62c00008401546fdca024b42320f8fc6914f3cb39261b4f60ceceae0b8fc5ad31f25dc87442791fe1a7a048c5dc949d1c05da088d59891cea2d5da8b0f4a39d0f3a89b99bf845eaa6d211",
      "hash": "0x0686788003eda5de8529af5423b6b545e93827ee2756a8d8d53fc515dd996123"
    }
  ],
  "supplemental_transactions": [
    {
      "id": "supplemental_tx6",
      "raw": "0xf9015782cac5840bebc20083027d5a94b6def636914ae60173d9007e732684a9eedef26e8829a2241af62c0000b8e456591d596261737400000000000000000000000000000000000000000000000000000000000000000000000000000000000000000000000000000000000000000000000000000000000000000000000064985c2587b2f9965fddc4644dc7bdf4a1d6e83c00000000000000000000000000000000000000000000000029a207af9bf6199a0000000000000000000000000000000000000000000000000000000000000000000000000000000000000000000000000000000000000000000000000000000000000000000000000000000000000000000000000000000029a2241af62c00008401546fdba0b102382c6278b34a9aaaa4847c5e42b7d79741aac1200ee9f1bcbeac7558f54ea01007cf8e6787ea9ae2a6445117bb710db2cb2bcffc5d2f51cadb1c5fdb84ac52",
      "hash": "0x6039b136798a9ecff7aadcacf7eb287efe23031a9f08dcb8ff36079849b8cb1a"
    },
    {
      "id": "supplemental_tx7",
      "raw": "0xf90170831a7ecf830f6a608301fc649405d4848577743300e2e07d176bd50035078460fd80b9010438ed17390000000000000000000000000000000000000000000000000429d069189e0000000000000000000000000000000000000000000000000000000000000000000000000000000000000000000000000000000000000000000000000000000000a0000000000000000000000000f1f9f77dda11f0a29f79e95c6c86204a01f1bcfb0000000000000000000000000000000000000000000000000000000067f6b05d0000000000000000000000000000000000000000000000000000000000000002000000000000000000000000d3df405e64fe7d95206b9c05bdb386cbb334c79e000000000000000000000000298b4c4f9be251c100724a3beae234bd1652cbce8401546fdca0e216d6024afb86bc1e9671b953956d8f1eceb760291249da66d77c6e51ce152da051aca41b1b5c1c7a5492cd5fbf18d5658225c432c9138e37eeed9651b1c221d9",
      "hash": "0x1cd0b81c9175c13527bb398f747ef00eb09b478c11f2baaf97d99a61af42e9ee"
    },
    {
      "id": "supplemental_tx8",
      "raw": "0xf90156820a03830f434e831e848094b6def636914ae60173d9007e732684a9eedef26e8829a2241af62c0000b8e456591d5962617374000000000000000000000000000000000000000000000000000000000000000000000000000000000000000000000000000000000000000000000000000000000000000000000000f7bd41e86f07859c5ca68496507ee8e7093bc41f00000000000000000000000000000000000000000000000029a20a1f826e92000000000000000000000000000000000000000000000000000000000000000000000000000000000000000000000000000000000000000000000000000000000000000000000000000000000000000000000000000000000029a2241af62c00008401546fdba0c9dc43d57e92937bb4357e11792904f4b804a85facc226af3dbb5dba65c655e1a07b5e38db4c35c24faa5d3fd1be0b2028bafe282aed205463ba7eafe80d22433a",
      "hash": "0x88f5c1b19d5bb198b4051e2a759f8a7f75f36706588b58cb594aa533d7c4e6d0"
    },
    {
      "id": "supplemental_tx9",
      "raw": "0x02f9015b83aa37dc824515830f434e830f434e8303d09094b6def636914ae60173d9007e732684a9eedef26e880de0b6b3a7640000b8e456591d59756e6974000000000000000000000000000000000000000000000000000000000000000000000000000000000000000000000000000000000000000000000000000000000000000000000000722fadc710682240a15471335d91ff6c00c556680000000000000000000000000000000000000000000000000ddd2935029d8000000000000000000000000000000000000000000000000000000000000000000000000000000000000000000000000000000000000000000000000000000000000000000000000000000000000000000000000000000000000de0b6b3a7640000c001a06d93da1acb50feb007df3c29e2d99a764a71c19a86049c74a3f0304d9d81fdd5a06d8e13823013787a40800d3a18269f323ddabd688e48051c96fc8ad53a2b460f",
      "hash": "0x02092106ac099a4326c204c2a7fc64eb43efaa1d882f3acb096508f63c52e73c"
    },
    {
      "id": "supplemental_tx10",
      "raw": "0x02f9015b83aa37dc8255c0830f434e830f434e8303d09094b6def636914ae60173d9007e732684a9eedef26e880de0b6b3a7640000b8e456591d59756e6974000000000000000000000000000000000000000000000000000000000000000000000000000000000000000000000000000000000000000000000000000000000000000000000000f2b033d238e94c790e74e29f82786bdecaeb7b370000000000000000000000000000000000000000000000000ddd2935029d8000000000000000000000000000000000000000000000000000000000000000000000000000000000000000000000000000000000000000000000000000000000000000000000000000000000000000000000000000000000000de0b6b3a7640000c080a03f4307fe5b760eae0e0bbd626586ba83a2d2c12d36cbf09acb8176d58bf1f83ca02e700ccc0811ba1400c3d7b4b55d0a27e8630608919aa290c240cad04a31f9c2",
      "hash": "0xdbadce9c8ef2e59e735f54f8a01ced57c23cbcb310fd69640d60fdb038fc7a61"
    }
  ],
  "batch_hash": "0xb9ef076572948183c38d75a6b8966236c1030c83c0e6ab50b813266de50be229"
}
