{
  "fixture_id": "l2-poc-plan7-v1",
  "description": "Deterministic 5-transaction fixture for L2 POC plan 007",
  "chain_id": 42069,
  "token_contract": "0x1000000000000000000000000000000000000001",
  "fee_recipient": "0x2000000000000000000000000000000000000001",
  "start_block": 900001,
  "end_block": 900005,
  "start_timestamp": 1700000000,
  "timestamp_delta_seconds": 2,
  "gas_limit": 30000000,
  "pre_checkpoint": {
    "prev_output_root": "0x1111111111111111111111111111111111111111111111111111111111111111",
    "parent_header_hash": "0x2222222222222222222222222222222222222222222222222222222222222222",
    "parent_block_number": 900000,
    "rollup_config_ref": "fixtures/l2-poc/rollup-config-v1.json",
    "witness_bundle_ref": "fixtures/l2-poc/witness-bundle-v1.json",
    "prev_randao": "0x3333333333333333333333333333333333333333333333333333333333333333",
    "parent_beacon_block_root": "0x4444444444444444444444444444444444444444444444444444444444444444"
  },
  "accounts": {
    "alice": {
      "address": "0xf39Fd6e51aad88F6F4ce6aB8827279cffFb92266",
      "private_key": "0xac0974bec39a17e36ba4a6b4d238ff944bacb478cbed5efcae784d7bf4f2ff80"
    },
    "bob": {
      "address": "0x70997970C51812dc3A010C7d01b50e0d17dc79C8",
      "private_key": "0x59c6995e998f97a5a0044966f0945389dc9e86dae88c7a8412f4603b6b78690d"
    },
    "carol": {
      "address": "0x3C44CdDdB6a900fa2b585dd299e03d12FA4293BC",
      "private_key": "0x5de4111afa1a4b94908f83103eb1f1706367c2e68ca870fc3fb9a804cdab365a"
    }
  },
  "transactions": [
    {
      "id": "tx1",
      "sender": "alice",
      "nonce": 0,
      "to": "0x1000000000000000000000000000000000000001",
      "calldata": "0xa9059cbb00000000000000000000000070997970c51812dc3a010c7d01b50e0d17dc79c80000000000000000000000000000000000000000000000000de0b6b3a7640000",
      "raw": "0x02f8b282a45580843b9aca00843b9aca00830186a094100000000000000000000000000000000000000180b844a9059cbb00000000000000000000000070997970c51812dc3a010c7d01b50e0d17dc79c80000000000000000000000000000000000000000000000000de0b6b3a7640000c080a0564f02567a04702de66042993a367177410911ebdfebcaca36cd24c4c7c0bdeaa07d815d4acea1ed65630d1148af6e122fd78c7ab9a53c1e859c81fcab282297c7",
      "hash": "0x854df7d49647b8a7cbd1aa3842771bb59ade9f767fc93a01c7c7ca4f064d55b1"
    },
    {
      "id": "tx2",
      "sender": "alice",
      "nonce": 1,
      "to": "0x1000000000000000000000000000000000000001",
      "calldata": "0xa9059cbb0000000000000000000000003c44cdddb6a900fa2b585dd299e03d12fa4293bc00000000000000000000000000000000000000000000000006f05b59d3b20000",
      "raw": "0x02f8b282a45501843b9aca00843b9aca00830186a094100000000000000000000000000000000000000180b844a9059cbb0000000000000000000000003c44cdddb6a900fa2b585dd299e03d12fa4293bc00000000000000000000000000000000000000000000000006f05b59d3b20000c001a00dcdc53a5b06dea39ca85043fc412cf852c36fdc3f0a8341b4f7c8c60e3c0c94a075c71ffbcc23ea26e9a7fe7f46cd931d5057672a7f734c9bb1d2b3b0b110c803",
      "hash": "0xdcf82dab307b3efe5c678ea1e8faaf7b62b8b3bdb059bb1c0fd8769bcc2557a3"
    },
    {
      "id": "tx3",
      "sender": "bob",
      "nonce": 0,
      "to": "0x1000000000000000000000000000000000000001",
      "calldata": "0xa9059cbb000000000000000000000000f39fd6e51aad88f6f4ce6ab8827279cfffb9226600000000000000000000000000000000000000000000000003782dace9d90000",
      "raw": "0x02f8b282a45580843b9aca00843b9aca00830186a094100000000000000000000000000000000000000180b844a9059cbb000000000000000000000000f39fd6e51aad88f6f4ce6ab8827279cfffb9226600000000000000000000000000000000000000000000000003782dace9d90000c001a02c36a33e3126296542f1dc1ebc0dbe79fd5500870ff3b2b745cb1812185b5375a0297fb032d66af81b9255932dcee42a193daee7d88b61149e3ab5f47267088de0",
      "hash": "0xd598a956891c5fdaffe217e6dd50ba74e639db6b6f4a6c9f6ba3793c525d930c"
    },
    {
      "id": "tx4",
      "sender": "carol",
      "nonce": 0,
      "to": "0x1000000000000000000000000000000000000001",
      "calldata": "0xa9059cbb00000000000000000000000070997970c51812dc3a010c7d01b50e0d17dc79c800000000000000000000000000000000000000000000000001bc16d674ec8000",
      "raw": "0x02f8b282a45580843b9aca00843b9aca00830186a094100000000000000000000000000000000000000180b844a9059cbb00000000000000000000000070997970c51812dc3a010c7d01b50e0d17dc79c800000000000000000000000000000000000000000000000001bc16d674ec8000c001a0e9bd3362e8f95e3c4bc3b9a096a846702a7430b6992843d31120a59ade552784a05d11cc4e11e97f860252df296520d73065c2683cec5c49a6e7cd35ba64daadfe",
      "hash": "0x7db9fcab301662069f118767601e89d9be74d084dff642021948641b23d84c4a"
    },
    {
      "id": "tx5",
      "sender": "alice",
      "nonce": 2,
      "to": "0x1000000000000000000000000000000000000001",
      "calldata": "0xa9059cbb00000000000000000000000070997970c51812dc3a010c7d01b50e0d17dc79c8000000000000000000000000000000000000000000000000016345785d8a0000",
      "raw": "0x02f8b282a45502843b9aca00843b9aca00830186a094100000000000000000000000000000000000000180b844a9059cbb00000000000000000000000070997970c51812dc3a010c7d01b50e0d17dc79c8000000000000000000000000000000000000000000000000016345785d8a0000c001a083cb259d4c35337199f7c5478696e21a7e28dd4feaab8bf12bdaf71ba30f8640a00bb8f2cc69015f052b89abe83fa8b8a1efd016f8aca3a0e2b950bbec5cdc3230",
      "hash": "0xa7ca5f8f7a1bcf92b4bce38241d55e808385b21645df25ceb8543612a284516e"
    }
  ],
  "batch_hash": "0x9091820ee7372c1090ec433dcbfdb8a9205d9037818d469bc425b66d67cbe87d"
}
